:020000040800F2
:100000000018002025530008714D0008734D0008AA
:1000100000000000000000000000000000000000E0
:10002000000000000000000000000000754D000806
:100030000000000000000000774D0008794D000826
:1000400095530008955300089553000895530008F0
:1000500095530008955300089553000895530008E0
:10006000955300089553000895530008854D0008E6
:1000700095530008955300089553000895530008C0
:100080009553000800000000000000009553000890
:100090000000000095530008955300089553000890
:1000A0000000000095530008955300089553000880
:1000B000BD4D000800000000AD4D00089D4D00083A
:1000C00010B5064C2378002B07D1054B002B02D02E
:1000D000044800E000BF0123237010BD6001002030
:1000E0000000000004540008044B10B5002B03D09E
:1000F0000349044800E000BF10BDC04600000000F6
:1001000064010020045400080023C25C0133002A6B
:10011000FBD1581E7047000002B4714649084900DF
:10012000095649008E4402BC7047C04602B471466D
:1001300049084900095C49008E4402BC7047C0462A
:10014000002243088B4274D303098B425FD3030A16
:100150008B4244D3030B8B4228D3030C8B420DD329
:10016000FF22090212BA030C8B4202D312120902B7
:1001700065D0030B8B4219D300E0090AC30B8B42F5
:1001800001D3CB03C01A5241830B8B4201D38B03A3
:10019000C01A5241430B8B4201D34B03C01A524148
:1001A000030B8B4201D30B03C01A5241C30A8B428B
:1001B00001D3CB02C01A5241830A8B4201D38B0276
:1001C000C01A5241430A8B4201D34B02C01A52411A
:1001D000030A8B4201D30B02C01A5241CDD2C3098C
:1001E0008B4201D3CB01C01A524183098B4201D308
:1001F0008B01C01A524143098B4201D34B01C01AF3
:10020000524103098B4201D30B01C01A5241C3086A
:100210008B4201D3CB00C01A524183088B4201D3D9
:100220008B00C01A524143088B4201D34B00C01AC5
:100230005241411A00D20146524110467047FFE731
:1002400001B5002000F006F802BDC0460029F7D035
:1002500076E770477047C04610B5040002F0B8FB5F
:10026000FA218900FFF76CFF00F08AFC00222100D0
:100270000120404200F03EFC002010BD10B5064AAF
:10028000136810210B4313600020FFF7E5FF04F013
:10029000BBFC002010BDC04600200240024A13688B
:1002A000013313607047C04674040020014B186886
:1002B0007047C0467404002030B583B00190FFF74A
:1002C000F5FF0500019C631C00D00134FFF7EEFF31
:1002D000401BA042FAD303B030BD0000F0B50127A7
:1002E0004A6A80261202C6463D0090460368B60060
:1002F00098594C69334AA540104042460243E843AE
:100300003A4300B59A511C369A5902409A51CA692B
:10031000002A3FD1103E9A59E40002409A51CA681F
:100320008E881204324390261C19B600A2518A68A6
:100330000E88120432439126B600A25181248A69A4
:10034000A400002A22D11A5902401A510A69002A2F
:1003500016D18524A4001A59104018510A6A012A9E
:1003600004D1872189005A582A435A5080210120FC
:1003700089005A5882435A50002004BC9046F0BD70
:10038000852080001A582A431A50E7E71A592A4351
:100390001A51DBE7012AD1D18326B6009A59E4002D
:1003A0002A439A510A688E881204324390261C19F7
:1003B000B600A2518A688E89120432439126B60093
:1003C000A251BBE7FFC0FFFFF8B5051E00D17CE0DE
:1003D0003D23C35CDBB2002B00D178E002213D233A
:1003E000E9542B6801261A688A431A601A68013991
:1003F0000A431A60FFF75AFF070004E0FFF756FFB1
:10040000C01B0A2857D82B685C683440F6D05A685D
:10041000164257D0AA69012A5ED080211A688A4301
:100420001A60EA69012A00D177E040211A688A43FC
:100430001A602A6A012A00D16AE020211A688A43D8
:100440001A606A6A012A5ED010211A688A431A600B
:10045000AA6A012A52D008211A688A431A60EA6AF5
:10046000012A46D004211A688A431A60E968AA68FA
:1004700001240A4329690A4369690A436968013901
:100480000A430121DA611A688A431A60FFF70EFFF6
:10049000060004E0FFF70AFF801B0A2821D82B681A
:1004A0005A681442F6D15B6823400BD12B643D237C
:1004B0000020EC5405E03D2303220320EA54013BD5
:1004C000EC54F8BD04223D23EA540120F9E73C2214
:1004D000835404F0C3FB81E780211A680A431A6041
:1004E0009FE703223D23EA540022013BEA54032004
:1004F000E7E704211A680A431A60B7E708211A6877
:100500000A431A60ABE710211A680A431A609FE792
:1005100020211A680A431A6093E740211A680A43A7
:100520001A6086E7F0B5C646036800B59A6804000D
:10053000520102D49A68120164D53C22A15C0220C7
:1005400001295CD00121A1543C31625CD2B2322A33
:1005500000D170E0622A00D170E0222A5AD0122223
:1005600062549A680021520106D4802299681205CB
:100570000A40514251410131C02501200A016D005C
:1005800090469A18565930405051206B8768002F7A
:1005900043D1016857594E05C1680E433E43565139
:1005A0000F25AC46664661460569434435407636BC
:1005B000FF36975905618F43190097519759893133
:1005C0003D4395514569FF310D6081698D33FF339E
:1005D0001960C0210125490053582B435350FFF7A0
:1005E00065FE3D22A35CDBB2522B21D0722B2BD0B7
:1005F000422B26D0A55400223C230020E25404BC08
:100600009046F0BD9A68D20097D404223D23C2548C
:100610000120F4E720326254A3E751598C46416827
:10062000CE00C1680F4361463E430E435651B7E7C3
:100630003223A354DFE75222625492E772226254BB
:100640008FE7203BA354D6E76223A354D3E7C046E9
:100650003C2210B5845C03000220012C28D0013814
:100660009854002925D10132995C22294AD0995CFD
:10067000422947D0995C622944D0995C722941D0C3
:10068000995CC9B2322951D052294CD0122947D095
:100690002221995400208F211A6818645469090294
:1006A000214351613C215854536932390B43536102
:1006B00010BD012919D03D215A5CD2B2222A2CD07A
:1006C000422A27D0122A22D032225A5400208F21C7
:1006D0001A68186454690902214351613C21585435
:1006E000536914310B435361E2E73D22995C32298F
:1006F00008D0995C522905D0995C622902D09A5C95
:10070000722AD8D100213C2202209954D0E74032ED
:100710005A54DBE772225A54D8E762225A54D5E77A
:1007200030319954B6E772219954B3E76221995454
:10073000B0E7C0467047C0461022F8B50368040011
:10074000D9680A4203D05969090700D582E08020A0
:100750000025C000102219690A4203D059694906D0
:1007600000D574E05A69D20711D59A68C3490A4086
:100770008A4200D182E09A68C1490A408A4200D187
:100780007CE09A68BF490A408A4200D176E05A6903
:10079000920703D5DA68920700D09CE05A69D20626
:1007A00003D51A69920700D0EFE0226C15430122AD
:1007B000256499690A4202D05969C90557D40222B1
:1007C00099690A4202D05969890549D40422996974
:1007D0000A4202D05969490532D4702299690A4205
:1007E00002D05969090511D4226C002A0DD00421C8
:1007F0005A6820000A435A603D220339A1545A69BD
:10080000A1490A405A6103F037FDF8BD596909044E
:10081000EAD599690A40302A00D164E100D841E163
:10082000502A00D139E1602A00D156E1402A02D194
:10083000216C0A43226470219A698A439A61D3E742
:1008400059690904C9D5216C0A432264C5E71A61B4
:10085000050087E7C0208025DA60C000AD0079E799
:1008600059690904B2D5216C0A432264AEE759697B
:100870000904A4D5216C0A432264A0E79A68920770
:1008800009D49A68920506D49A68920303D4802208
:10089000120115431AE001215A698A435A613D2227
:1008A000A25C122A00D1C6E03D22A35CDBB2522B2F
:1008B00000D1C5E0722B00D1DAE0422B00D1D4E0A8
:1008C0000123A3542000FFF735FF236899686F4A7E
:1008D0000A439A605BE7D820042140001E58626BEF
:1008E0003140916000D0AEE01958490D1160D82117
:1008F00049005958DA208907C90FD1600F214000FB
:100900001E583140116119580904090ED1610021A6
:100910001162B931FF31585810755858000A507596
:100920005858000C90755958090ED175DE214900B0
:10093000585810765858000A50765858000C90763F
:100940005958090ED1762021DA680A43DA605A69CB
:1009500016398A435A613D22A15C22297BD0A25CD0
:10096000322A78D03D22A35CDBB2622B00D1A6E014
:10097000722B00D1A0E0422B00D18BE00123A354C5
:10098000200003F07FFC236808E7E02004214000FA
:100990001E58A26B3140916059D11958490D116010
:1009A000E021012049005958E22649080140D16060
:1009B0000F2176009F59394011619959106209043D
:1009C000090ED161E4214900585810755858000AA1
:1009D00050755858000C90755958090ED175E6217C
:1009E0004900585810765858000A50765858000C4C
:1009F00090765958090ED17620211A690A431A6156
:100A00005A6930318A435A613D22A15C222927D09C
:100A1000A25C322A24D03D22A35CDBB2622B54D0EC
:100A2000722B4FD0522B26D00123A354200003F069
:100A300029FC2368B9E65A6915490A405A6133E727
:100A40003223A3543EE71958C90851604FE719589B
:100A5000C9085160A4E75A690D490A405A6181E703
:100A60005A690B490A405A61D5E7203BA35429E74C
:100A70006223A35426E7403BA354D7E701000004B8
:100A80000001000800000110A470FFFF190501001B
:100A9000FF70FFFF303BA35472E78021226C0A43B2
:100AA0002264C8E6102A13D0202A00D0C3E6102101
:100AB000226C0A432264BEE65223A35460E7322329
:100AC000A3545DE74223A354B0E72223A354ADE728
:100AD0000821226C0A432264ADE68022216C520078
:100AE0000A432264A7E62021226C0A432264A2E67C
:100AF000006C704770B5002811DB8308144DC033BB
:100B00009B005C5903221040C000FC321600864056
:100B1000B44389010A40824022435A5170BDC0B299
:100B20000F230340083B9B0806339B00094A944669
:100B300063445D6803221040C000FF24220082400D
:100B4000954389010C4084402C435C60E6E7C04635
:100B500000E100E000ED00E01F2318401E3B834051
:100B6000014A13607047C04600E100E01F231840AF
:100B70001E3B8340802201498B50704700E100E01A
:100B800001380A4B98420FD8094A50600948036A55
:100B90001B021B0AC02109060B430362002393605A
:100BA00007331360002070470120FCE7FFFFFF00C0
:100BB00010E000E000ED00E0042805D0054A1368CD
:100BC00004218B4313607047024A136804210B43CE
:100BD0001360F8E710E000E0704710B5FFF7FCFF86
:100BE00010BD000070B504000120002C28D00223A5
:100BF0002068A51CEB770268124BA1681A40636855
:100C00000B43E1680B4321690B4361690B43A16905
:100C10000B43E1690B43134303600B4B1421C018D2
:100C2000FFF78EFA094B80002064E3630020012364
:100C3000A062E06220636063A063E418EB77E07772
:100C400070BDC0460FC0FFFFF8FFFDBF00000240AF
:100C5000F0B5461CF57F0224012D26D00125F5773D
:100C60000519AC46ED7F0027EDB2012D29D166466E
:100C7000F477046887632668076CAE43BD4026603E
:100C8000C66B7560636043680568102B0FD1A26066
:100C9000E160C36A2268002B0CD00E23134323604B
:100CA000012300242A6813432B602000F0BDA160BB
:100CB000E260EEE70A231343042223602368934390
:100CC000EDE7F777F1E70E21036810B51A68046CB9
:100CD0008A431A6001221968914319601100A140EA
:100CE000C36B5960831CDA7783180020D87710BD56
:100CF00070B5841CE37F022B04D004238363033B81
:100D0000180070BD0E210368056C1A688A431A60CA
:100D100001221968914319601100A940C36B596001
:100D2000E27700248318426BDC771300A242E7D0FD
:100D300090472300E4E7F8B504273E00016CC26B3E
:100D40008E40156803681C682E420DD03C420BD0C3
:100D50001968890602D41968B9431960C36A5660D4
:100D6000002B19D0984717E002273E008E402E42F4
:100D700013D03C4211D01968890606D40A24196898
:100D8000A14319600121C319D97756600022431C81
:100D9000DA77836A9342E5D1F8BD082637008F40A1
:100DA0003D42F9D03442F7D00E251C68AC431C609C
:100DB00001231C008C405460821C8363D377002283
:100DC000C318DA77036BE5E710210C4B30B5D86810
:100DD0000022084205D00A480232C4692243C26197
:100DE0000A000420D968014205D00121044C0243C5
:100DF000E5692943E161DA6030BDC0460020024068
:100E000078040020054B01201A69120604D5002041
:100E1000034A5A60034A5A607047C04600200240A5
:100E200023016745AB89EFCD8023034A0020116978
:100E30000B4313617047C046002002408021064AE0
:100E40008900136901200B4004D118000349916007
:100E5000034991607047C046002002402301674566
:100E6000AB89EFCD034A0449136900200B4013619D
:100E70007047C04600200240FFFDFFFF70B5040030
:100E8000FFF714FA01250600104B1A00D968294211
:100E90000FD12021D868084200D0D9601023D06833
:100EA000184002D1D3685B0708D5FFF78DFF0120FA
:100EB00004E0611CEAD0002C01D1032070BDFFF7D3
:100EC000F5F9801B8442DFD2F7E7C04600200240DC
:100ED0008023054A10B511699B010B431361034838
:100EE000FFF7CCFF10BDC0460020024050C30000F9
:100EF00070B506001248FFF7C1FF00281FD120255A
:100F0000104B114CD86123690D482B4323614023BA
:100F1000226913432361FFF7B1FF2369AB432361C8
:100F200000280CD12369103D2B432361074BB6B237
:100F30001E800348FFF7A2FF2369AB43236170BD06
:100F400050C30000780400200020024000F8FF1F7A
:100F5000062270B5124CBB25E3691340022B03D067
:100F60001135042B00D0223D0E48FFF787FF0028E3
:100F700014D120260C4BD86123690A4833432361DE
:100F80004023226913432361FFF778FF2369B343AA
:100F90002361002802D1E8B2FFF7AAFF70BDC04666
:100FA0000020024050C3000078040020F7B5464CF2
:100FB0000500237E0220012B2DD02B6801382076DE
:100FC000034241D0AB68414E01936B68376A83425C
:100FD00022D13F48FFF752FF00281AD1E061FFF706
:100FE000B7FF002815D1019B32699F431023FFB240
:100FF00013433361FF2F06D0364A13891F401781F0
:101000003348FFF73BFF10223369934333610028D5
:101010001AD000232376FEBD2D48FFF72FFF0028AE
:10102000F7D1E061FFF794FF0028F2D1019B32690C
:101030003B43DFB2102313433361FF2FE3D0254B33
:101040001A8917431F81DBE72B689B0704D5287B90
:10105000FFF74EFF0028DCD12B685B0718D56B7BB0
:101060001B480193FFF70AFF0028D2D11027174E23
:10107000E0613369174A3B4333616B469B881448F0
:101080005380FFF7FBFE3369BB4333610028C0D1B7
:101090002B681B07BDD52B690D4801932E7DFFF7EB
:1010A000EDFE0028B5D11027084DE0612B69B6B2DE
:1010B0003B432B61019B06481E80FFF7DFFE2B6937
:1010C000BB432B61A5E7C046780400200020024006
:1010D00050C3000000F8FF1F072306210360084BE0
:1010E0001A6A8260DA690A40B531022A03D01131E6
:1010F000042A00D022390173DB691B0A437370474D
:1011000000200240F0B5C64600B582B000237BE067
:10111000DF080837BF003E5807251D40AD000F24EB
:10112000AC40A6430C69AC40250035433D507BE004
:10113000856864462540CE68BE4035438560456875
:101140002C004546AC434D682E09012535409D4095
:101150002C434460C46865462C408D68BD402C43D8
:10116000C4604C68E4004ED5414DAE69012426436D
:10117000AE61AD692C400194019C9C08A51CAD009A
:101180003C4EAE5903251D40AD000F27AF40BE4376
:101190009027FF05B84262D0374FB84261D0374F31
:1011A000B8425AD00527AF403D0035430234A40071
:1011B000304EA551324C2568D44326002E404F684E
:1011C000FF0301D515432E002D4D2E606D682E00B6
:1011D00026404F68BF0301D515432E00284D6E6091
:1011E000AD682E0026404F68FF0201D515432E0042
:1011F000234DAE60ED682C404E68B60201D52A43FF
:1012000014001F4AD46001330A681400DC402AD05D
:1012100001249C40A0462240F5D04D68022D00D10B
:1012200076E7122D00D173E706685F0003252C00D6
:10123000BC40E443A44626404C682540BD403543AD
:1012400005604D686E1E012E00D871E7112D00D18A
:101250006EE7122D00D07DE76AE70227A3E700279B
:10126000A1E701279FE702B004BC9046F0BDC0464D
:10127000001002400000014000040048000800483F
:1012800000040140002A01D1816270478161FCE7BE
:10129000436959404161704770B5041E24D003680A
:1012A000124A1A600368124A1A60036842685A6058
:1012B000036882689A60FEF7F9FF05002368DA6820
:1012C000002A06D0FEF7F2FF401B2728F6D903209C
:1012D00070BD1969E268914202D01A610020F7E7F7
:1012E000044A1A600020F3E70120F1E7CCCC0000AB
:1012F00055550000AAAA00000368024A1A6000209F
:101300007047C046AAAA000070B5041E58D0EA2350
:10131000FF33C35C002B05D00322EA23FF33E254E2
:10132000002218E00022E933FF33C25403F01CFE10
:10133000F2E7D100891A8B00E31819002931012046
:10134000087001390A7018002B30002101705963B0
:101350009963D963013260688242EAD3002214E0C3
:10136000D100891A8B00E3181D000A35FF350021D2
:101370002970013D2A70033529700935296004352B
:1013800029601D33FF33196001328242E8D34023C4
:1013900001222168CA5200222168CA5244212068D1
:1013A00042520C3120684252064A2168CA521C3B04
:1013B0000022E254EA23FF330122E254002070BDF0
:1013C0000120FCE700BFFFFF016858228B5A034849
:1013D00003439BB28B5200207047C0460080FFFF42
:1013E000F4235B00C35C012B13D00122F4235B00C8
:1013F000C25400290AD17F329D3BFF3B0168CA528B
:101400000022F4235B00C254002070472423C154FF
:10141000F6E70220F9E7000070B54EB2002E65DB5A
:101420007F240C40E5002D1BAC000934FF34041967
:101430007F250D402570F60F6670E260E370F4239F
:101440005B00C35C012B00D175E10122F4235B003A
:10145000C254E378012B00D174E0002B4ED0022B54
:1014600059D0032B61D02278930001688C466344E5
:101470001988B24D29400A43B1490A431A80A37A18
:10148000002B00D0B5E06378002B00D167E0016845
:101490005023CB5A2278D2009B185B188022D200AE
:1014A00094466344A28801218A431A8023789B00D2
:1014B0000268944663441A88510603D52A40A1491C
:1014C0000A431A802278920003689C46624413887B
:1014D0009D490B4020214B409BB299490B431380FF
:1014E0000022F4235B00C254002070BD7F240C4016
:1014F000E5002D1BAC002834041999E723789B00E4
:101500000268944663441A889049114080229200F0
:101510000A431A80A7E723789B0002689446634435
:101520001A888A490A401A809DE723789B0002683E
:10153000944663441A8885491140C022D2000A4368
:101540001A8090E723789B000268944663441A88C7
:101550007E4911408022D2000A431A8083E7016845
:1015600050254B5B2278D2009B185B18784A944632
:101570006344A28801218A431A8001684B5B227868
:10158000D2009B185B18734A94466344E1683E2975
:1015900026D94A0992B2C90601D1013A92B2920201
:1015A00092B26D490A431A8023789B0002689446E0
:1015B00063441A88510404D560490A4067490A43C4
:1015C0001A8023789B000268944663441988644A11
:1015D0001140C02292015140594A0A431A807FE7C4
:1015E0004A0892B2C90701D5013292B292021A801A
:1015F000DAE723789B000268944663441A885949C5
:101600001140594A0A431A80016850268B5B2278A0
:10161000D2009B185B188022D20094466344E28873
:1016200001218A431A800568AB5B2278D2009B189F
:101630005B19474A9446634422898A431A80637837
:10164000002B3DD123789B000268944663441A889E
:10165000510404D539490A4040490A431A80237885
:101660009B000268944663441A88510604D53349A6
:101670000A4034490A431A8023789B000268944642
:1016800063441A882D4911402E4A0A431A80217852
:10169000890003689C4661440B88314A1A40C02384
:1016A0009B015340264A13430B8023789B0001681B
:1016B0008C4663441988244C21400A431A800FE762
:1016C00023789B000268944663441A88510404D529
:1016D0001A490A4021490A431A8023789B0002686C
:1016E000944663441A88510604D514490A401549A2
:1016F0000A431A8023789B000268944663441A8840
:101700000E491140154A0A431A802178890003685E
:101710009C4661440B880C4A1340094A13430B80D2
:1017200023789B0001688C46634419880C4C214047
:101730000A431A80D4E60220D7E6C0460F0F000005
:101740008080FFFFC080FFFFBF8FFFFF8F89FFFFFB
:1017500004040000060400000080FFFF80C0FFFFBB
:101760008FBFFFFF0F0E00008081FFFF10B54AB250
:10177000002A3ADB7F230B40DC00E41AA300093384
:10178000FF33C3187F2421401970D20F5A70F422FE
:101790005200825C012A00D1C1E00121F4225200F2
:1017A00081549A7A002A41D15A78002A25D01A7891
:1017B000920001688C46624411884C0604D5594C4D
:1017C0002140594C214311801B789B0002689446AC
:1017D00063441A8855491140554A0A431A80002229
:1017E000F4235B00C254002010BD7F230B40DC00BB
:1017F000E41AA3002833C318C4E71A7892000168DA
:101800008C46624411884C0404D5464C2140494C16
:10181000214311801B789B000268944663441A8818
:1018200045491140424A0A431A80D8E75A78002AAB
:101830003AD11A78920001688C46624411884C04AF
:1018400004D5384C21403B4C214311801A7892003A
:1018500001688C46624411884C0604D5314C214005
:10186000314C214311801A78920001688C46624401
:1018700011882C4C0C402C49214311801C78A40069
:1018800002689446644422882B490A4028490A4346
:1018900022801B789B000268944663441A88234C7C
:1018A0002240114319809AE71A78920001688C4609
:1018B000624411884C0404D51A4C21401D4C21432C
:1018C00011801A78920001688C46624411884C0697
:1018D00004D5144C2140144C214311801A789200F5
:1018E00001688C46624411880E4C0C40114921431A
:1018F00011801C78A40002689446644422880B4935
:101900000A400B490A4322801B789B0002689446D8
:1019100063441A88084C2240114319805FE7022073
:1019200062E7C0460F0F0000C080FFFFBF8FFFFFC0
:101930008080FFFF80C0FFFF8FBFFFFF70B57F2457
:101940002140CD006D1AAC00041925001935FF3572
:101950002A6022001D32FF321360083500222A60FF
:10196000173D2A7022000932FF3211701534FF34FE
:101970002268934240D9CD006D1AAC0004191D3481
:10198000FF349B1A2360CC00641AA3001C00C31808
:101990001333FF331B78002B41D105685033EB5ACA
:1019A00004190934FF342478E4001B195B195E4CD8
:1019B000A44663443E2A29D95409A4B2D20601D1CF
:1019C000013CA4B2A402A4B2584A14431C80036888
:1019D000CA00511A8A0080180930FF30027892003C
:1019E0009B181988524A1140C02292015140514A15
:1019F0000A431A80002070BDCC00641AA20082182D
:101A00001D32FF32002414601A00BCE75408A4B24F
:101A1000D20701D50134A4B2A4021C80D7E7CC00C0
:101A2000641AA3001C00C3180A33FF331B78002B71
:101A300023D105685033EB5A04190934FF34247854
:101A4000E4001B195B193C4CA44663443E2A0BD9A5
:101A50005409A4B2D50601D1013CA4B2A402A4B297
:101A6000324D2C431C800AE05408A4B2D50701D59E
:101A70000134A4B2A4021C8001E0012B24D0CC00CC
:101A8000641AA3001C00C3180A33FF331B78002B11
:101A900035D105685033EB5A04190934FF342478E2
:101AA000E4001B195B19204CA44663443E2A1DD94F
:101AB0005409A4B2D20601D1013CA4B2A402A4B23A
:101AC0001A4A14431C8082E705684F33EB5ACE0054
:101AD000761AB40004190934FF342478E4001B1981
:101AE0005B19154CA44663441A80C8E75408A4B295
:101AF000D20701D50134A4B2A4021C8067E7012BF0
:101B000000D064E705684F33EB5ACE00761AB40074
:101B100004190934FF342478E4001B195B19024CC2
:101B2000A44663441A8052E7060400000080FFFFC9
:101B30008FBFFFFF8080FFFF020400007F2319405A
:101B4000CB00591A8B00C0182130FF300088704735
:101B500010B5F4235B00C35C012B4ED00122F423AB
:101B60005B00C2544CB2002C20DBCA00521A930016
:101B70000933FF33C31801229A707E321140197065
:101B8000E40F5C7000291AD1890003689C46614407
:101B90000A881B4B1A401B4B5A401B4B13430B80AC
:101BA0000022F4235B00C254002010BD6A3BFF3BBF
:101BB0000B40DA00D21A93002833C318DBE7002C5D
:101BC0000DD0890003689C4661440B880F4A13407E
:101BD000102253409BB20C4A13430B80E0E789006C
:101BE00003689C4661440A88094B1A4080235B01C4
:101BF0005A40054B13430B80D2E70220D5E7C0467D
:101C0000BFBFFFFF101000008080FFFFBF8FFFFFEE
:101C10008FBFFFFF10B54AB2002A39DBCC00641A2F
:101C2000A3000933FF33C31800249C707F34214084
:101C30001970D20F5A70F4225200825C012A4BD0E4
:101C40000121F422520081545A78002A28D01A78AF
:101C5000920001688C46624411884C0604D51F4CE2
:101C600021401F4C214311801A78920003689C4642
:101C7000624413881B490B4030214B409BB21A49E8
:101C80000B4313800022F4235B00C254002010BDDC
:101C90007F230B40DC00E41AA3002833C318C3E7FA
:101CA0001A78920001688C46624411884C0404D56D
:101CB0000A4C21400D4C214311801B789B00026887
:101CC0009446634419880A4A1140C0229201514047
:101CD000054A0A431A80D5E70220D8E70F0F000013
:101CE000C080FFFFBF8FFFFF8080FFFF80C0FFFF2E
:101CF0008FBFFFFF10B501335B0812188020C000B2
:101D0000141807E00A784878000202432280023162
:101D1000013B0234002BF5D110BD0000F8B50500E1
:101D20007F240C40E000001B810069188A63CB63AC
:101D300000220A640A00293201201070013A14704E
:101D40004F6BBB4233D9DB1BCB63E200121B93000A
:101D50001A00EB1832331B78002B30D02868E200D1
:101D6000121B9300EB1828331B789A00825A5206F4
:101D700074D5E600361BB200AA1829321278002A60
:101D80003BD15032825ADB00D3181818624B9C4664
:101D900060443E2F28D97B099BB2FA0601D1013B52
:101DA0009BB29B029BB25D4A1343038027E0E10094
:101DB000091B8A00AA180021D1631F00C5E7BFB222
:101DC000AE18B28D3B00B16B2868FFF793FF2A680D
:101DD0005023D35A28363178C9005B189B18504AD3
:101DE000944663441F8082E07B089BB2FA0701D5CA
:101DF00001339BB29B02038001E0012A24D0E20060
:101E0000121B9300EB181A8EBBB2E100091B8E0067
:101E1000AE19B16B2868FFF76DFF29363378002BB8
:101E200055D0012B63D1E200121B9300EB1828332D
:101E30001B789B002A68944663441A8839491140EC
:101E4000394A0A431A8052E04F32825ADB00D318D3
:101E50001818314B9C4660440780D0E7E600361BDB
:101E6000B200AA1829321278002A1ED15032825AA2
:101E7000DB00D31818182A4B9C4660443E2F0BD920
:101E80007B099BB2FA0601D1013B9BB29B029BB23C
:101E9000224A134303800AE07B089BB2FA0701D56C
:101EA00001339BB29B02038001E0012A05D0E200CE
:101EB000121B9300EB18DA8DA6E74F32825ADB0033
:101EC000D3181818164B9C4660440780EFE7E200D1
:101ED000121B9300EB1828331B789B002A6894464A
:101EE00063441A880F491140104A0A431A802A682D
:101EF000E1000C1BA300ED1828352B789B00D218AD
:101F000013880B490B4030214B409BB209490B43CE
:101F100013800020F8BDC046060400000080FFFFCB
:101F2000020400000F0F000080C0FFFFC080FFFF11
:101F3000BF8FFFFF8080FFFF10B55C081018802264
:101F4000D2009446604406E002880A70120A4A7081
:101F5000013C02300231002CF6D1DB0701D50388A9
:101F60000B7010BDF0B583B00500002201AB1A80E4
:101F7000B5E10388A94A1340038029685023CB5A4E
:101F80002822AA5CD2009B185B18A54A9446634499
:101F90001B889B059B0D2B64AA6B94466344AB6323
:101FA0000021280003F019F82423EB5C002B00D15A
:101FB00095E1EB6B002B00D091E12422AB5C8021FA
:101FC00049420B43DBB2CC31286843520023AB5467
:101FD00085E15023C35A84225200AA5CD2009B1888
:101FE0001B18904A944663441B889B059B0D2A004E
:101FF0000932FF3293612900ED31FF319288FFF7FA
:102000009BFF2A68138888490B401380280002F040
:10201000CBFF64E1140092882169FFF78DFF2369EB
:10202000A26994466344236195E14B089BB2C907BA
:1020300001D501339BB29B021380A9E1A600801950
:10204000028801AB1A801B881BB2002B31DB01AB6D
:102050001B881B0600D442E12B689C4666443388EB
:102060006E4A13403380E200121B93001A00EB18F3
:1020700032331B78002B00D0DCE028685033C35A81
:10208000AA18110028310978C9005B181B18644987
:102090008C4663441B889B059B0D136400D1F9E0BB
:1020A000E200121B910069188A8D896BFFF722FEEE
:1020B000F0E05D4B1A400280E200121B93001A0010
:1020C000EB181333FF331B78002B1DD128685033D6
:1020D000C35A1100AA180932FF321278D2009B1895
:1020E0001B18504A944663441F88BF05BF0D34D067
:1020F0006B181A000D32FF3212881933FF3319683A
:102100003B00FFF719FF28E02868E200121B93004C
:10211000EB180933FF331B789A00825A520456D5C4
:102120005022825ADB00D3181B183D4A9446634460
:102130001F88BF05BF0D3BD1E200121B9300EB18B7
:102140000933FF331B789B002A68944663441A883E
:1021500036491140364A0A431A803900E200121B00
:102160009300EB1818002130FF300268D21902608A
:102170001A001932FF3210688446674417601D3315
:10218000FF331B68002B08D0E200121B90002818B8
:102190001530FF300268914234D2E200121B9300E6
:1021A000EB180933FF331978280002F007FF4EE7D8
:1021B000E200121B9300EB181A000F32FF32128854
:1021C0001933FF3319683B00FFF7B6FEB4E750221E
:1021D000825ADB00D3181B18124A944663441F88A6
:1021E000BF05BF0DA8D0E200121B9300EB181A0028
:1021F0001132FF3212881933FF3319683B00FFF7A1
:102200009BFE99E7E100091B8A00AA180932FF32F8
:1022100011783A002800FFF791FB18E70F8FFFFFB6
:1022200002040000060400008F0F00000F0F0000E2
:10223000C080FFFF2868E200121B9300EB182833D0
:102240001B789A00825A520600D4B2E05022825A79
:10225000DB00D3181B186A4A944663441B889B050D
:102260009B0DE100091B8A001100AA181364002BC2
:1022700000D098E0E200121B9300EB1828331B7883
:102280009B002A68944663441A885E4911405E4A5E
:102290000A431A8028685023C25AE100091B8B00A8
:1022A000EB18190028310978C9005218121854493E
:1022B0008C46624412889205920D1A64996B8C4682
:1022C00062449A63DB6B002B00D08CE0E3001C1BA4
:1022D000A300EB1828331978280002F07EFE286846
:1022E0004423C35A9BB26A46D3801BB2002B00DB47
:1022F00083E06B46DC880F231C4000D09EE66B46D3
:1023000006331B88DB0600D433E6028801AB1A8053
:102310001B881B0500D55CE601AB1B881BB2002B9C
:10232000DDDA0388394A1340038028685023C35AF2
:1023300084225200AA5CD2009B181B18344A94468F
:1023400063441B889B059B0D2A000932FF32936171
:10235000002B00D05EE60021280002F02FFE2B6843
:1023600050229A5A9A182A4B9C4662442B000933F1
:10237000FF33D9683E2900D857E64B099BB2C906FE
:1023800001D1013B9BB29B029BB222490B431380BC
:1023900029680A88204B1A40C0239B015A401F4BD2
:1023A00013430B809BE76918CA8D896BFFF7A2FC6A
:1023B00060E75022825ADB00D3181B18144A944657
:1023C00063441B889B059B0DE100091B8A001100DB
:1023D000AA181364002B00D14CE769180A8E896B88
:1023E000FFF788FC46E7E1000C1BA10069182831C3
:1023F00009782800FFF792FC71E7002003B0F0BDD8
:10240000020400000F0F000080C0FFFF8F0F0000CC
:10241000060400000080FFFF8FBFFFFF8080FFFFEA
:1024200070B5040044230268D35A1BB2002B48DB6A
:10243000236844229A5A520546D4236844229A5A61
:10244000520404D544215A5A354802405A5223684E
:1024500044229A5A920404D544215A5A31480240DF
:102460005A52236844229A5AD2043AD42368442206
:102470009A5A120515D544215A5A2B4802405A52ED
:1024800020684022835A08252B439BB28352206840
:10249000835A04252B439BB2835223685B5ADB0487
:1024A00031D5236844229A5A920530D423684422B5
:1024B0009A5AD20504D544215A5A1C4802405A520D
:1024C00070BDFFF74FFDB3E744215A5A1848024048
:1024D0005A52200002F095FD00212000FEF780FFF7
:1024E000ABE74022995A042081439952114B21684D
:1024F0008B52200002F0A4FD216844228B5A0E4822
:1025000003408B52B2E7200002F088FDC9E7442166
:102510005A5A0A4802405A52200002F06BFDC5E7A1
:10252000FFBFFFFFFFDFFFFFFFF7FFFFFFFEFFFF24
:10253000FFFBFFFF00BDFFFFFFEFFFFFFFFDFFFF02
:1025400010B50C060FD57F242140CC00611A8C00F9
:1025500028340019002A0DD001228272C3801B0C7E
:102560000381002010BDCC00611A8C000934FF34B7
:102570000019EFE782728380F3E7000070B5040072
:102580000368DB073BD5874B5A680C231340042BA9
:102590002DD0844B5A680C231340082B1ED063683F
:1025A000012B52D0002B57D17E4B1A687E490A402E
:1025B0001A601A687D490A401A606368002B63D06C
:1025C000FDF774FE0500774B1B689B0317D4FDF7DE
:1025D0006DFE401B6428F6D90320E0E0714B5B6878
:1025E000C02252021340802252029342D7D16D4B37
:1025F0001B689B0303D56368002B00D1CCE02368E4
:102600009B0672D5674B5A680C2313400C2B50D095
:10261000644B5A680C231340082B43D0236A002BC9
:1026200050D0604A516B80235B020B435363FDF72C
:102630003DFE05005B4B5B6BDB0356D4FDF736FEBE
:10264000401B0228F6D90320A9E0564A11688023CE
:102650005B020B431360B0E7052B09D0514B1A689E
:1026600051490A401A601A6850490A401A60A4E7A2
:102670004C4B19688022D2020A431A6019688022E2
:1026800052020A431A6098E7FDF710FE0500454B19
:102690001B689B03B3D5FDF709FE401B6428F6D9E0
:1026A00003207CE03F4B5B68C02252021340934200
:1026B000B4D13C4B5B6BDB0317D5236A012B14D0E1
:1026C00001206CE0374A536B37490B405363FDF7E9
:1026D000EDFD0500334B5B6BDB0306D5FDF7E6FD37
:1026E000401B0228F6D9032059E0636A002B55D01D
:1026F0002C4A51680C220A40082A51D0022B12D0D1
:10270000284A13682A490B401360FDF7CFFD0400E7
:10271000244B1B689B013DD5FDF7C8FD001B02281B
:10272000F6D903203BE01F4A136821490B40136090
:10273000FDF7BCFD05001B4B1B689B0106D5FDF793
:10274000B5FD401B0228F6D9032028E0154BDA6AB4
:102750000F218A43216B0A43DA625A6815490A40FD
:10276000E16AA06A01430A435A6019688022520450
:102770000A431A60FDF79AFD04000A4B1B689B018F
:1027800006D4FDF793FD001B0228F6D9032006E0CE
:10279000002004E0002002E0012000E0002070BDE5
:1027A0000120FCE700100240FFFFFEFFFFFFFBFFE0
:1027B000FFFFFFFEFF7FC2FF30B589B004AA1F4BA9
:1027C000180032C832C2110002680A606A4610332B
:1027D00013CB13C21B681360194B5A680C231340A8
:1027E000082B04D00C2B26D0164809B030BD910C14
:1027F0000F23194004A8445C1149C96A0B4069467B
:10280000C95CC0235B021A4080235B029A4208D055
:10281000C0235B029A4209D00A48FDF791FC60434D
:10282000E3E70848FDF78CFC6043DEE70648FDF768
:1028300087FC6043D9E70448D7E7C0461C5400082A
:102840000010024000127A00006CDC0270B5050036
:102850000C00594B1A68012313408B420BD2564986
:102860000B680122934323430B600B681A40944288
:1028700001D001209DE02B689B0706D54F4A536885
:10288000F0218B43A9680B4353602B68DB0764D5A9
:102890006B68012B25D0022B29D0032B2DD0474A62
:1028A0001268920700D485E044494A6803208243B5
:1028B00013434B60FDF7FAFC06006B68012B22D036
:1028C000022B2ED0032B3AD03C4B5B680C221A42D1
:1028D00043D0FDF7EBFC801B394B9842F4D9032021
:1028E00067E0364A12689203DED4012061E0334A81
:1028F00012689201D8D401205BE0304A526BD203B7
:10290000D2D4012055E02D4B5A680C231340042BE0
:1029100023D0FDF7CBFC801B294B9842F3D9032031
:1029200047E0264B5A680C231340082B15D0FDF7BF
:10293000BDFC801B224B9842F3D9032039E01F4B8A
:102940005A680C2313400C2B07D0FDF7AFFC801BFB
:102950001B4B9842F3D903202BE0174B1A68012335
:1029600013409C420BD214490B680122934323432A
:102970000B600B681A40944201D0012019E02B68CB
:102980005B0706D50D4A53680E490B40E9680B43B7
:102990005360FFF711FF094B5A6812090F231340C8
:1029A000094AD35CD840094B18600020FDF754FC5D
:1029B000002070BD0120FCE7002002400010024012
:1029C00088130000FFF8FFFF485600081801002098
:1029D000014B18687047C0461801002010B5FFF77A
:1029E000F7FF044B5A68120A07231340024AD35CCC
:1029F000D84010BD001002405856000870B582B093
:102A000004000368DB0335D5464BDB69DB005CD48F
:102A1000444AD169802040050143D161D369034014
:102A20000193019B0125404B1B68DB054FD53D4BB6
:102A30001B6AC0229200134013D061680A4093427F
:102A40000FD0384B186A394A02401E6A8021490269
:102A500031431962196A364E314019621A62C3074E
:102A600049D4304A136A31490B4061680B43136201
:102A7000012D4FD02368DB0706D52A4A136B0321AB
:102A80008B43A1680B43136323689B0606D5254A35
:102A9000136B10218B43E1680B43136323689B0383
:102AA00006D5204A136B80218B4361690B43136366
:102AB00023685B0533D51B4A136B40218B43216987
:102AC0000B431363002002B070BD0025ABE7164A2C
:102AD000116880235B000B431360FDF7E7FB0600E2
:102AE000114B1B68DB05A2D4FDF7E0FB801B6428BB
:102AF000F6D90320E7E7FDF7D9FB0600094B1B6A6F
:102B00009B07AED4FDF7D2FB801B0A4B9842F5D948
:102B10000320D8E7D36908490B40D361AAE7002016
:102B2000D1E7C0460010024000700040FFFCFFFFEC
:102B3000FFFFFEFF88130000FFFFFFEF0368064959
:102B40001A686A300A401A609A682331FF318A4352
:102B50009A60202303707047DFFEFFFF130002001E
:102B600070B56932147805000220202C34D1013868
:102B7000002931D0002B2FD08024AE686401A642FA
:102B800004D12C69002C01D1014225D12E006836D8
:102B900034780220012C1FD00138307028005030CA
:102BA000E9640024038043802120EC661070286EC5
:102BB0000A4A446382620A4AC2620A4A02632A6873
:102BC0002832FEF745F8402220002B681A629968E7
:102BD00092180A4334709A6070BDC046E92C000810
:102BE0001B2D0008752D0008F8B5130002006A328D
:102BF000147805000220202C3CD10138002939D05E
:102C0000002B37D08024AE686401A64204D12C6921
:102C1000002C01D101422DD12E00683634780220DB
:102C2000012C27D02800012758303770002469650F
:102C300003802220EC661070686E0F4A4463826243
:102C40000E4AC2620E4A02632A68243294460A007F
:102C50006146FDF7FDFF80222B6852001968347031
:102C60000A431A609A682000174340229F609968BF
:102C70000A439A60F8BDC046252D00086B2D000858
:102C8000752D000870B5050069352B780400212BDF
:102C900013D1802103689A680A420ED09A68006EA8
:102CA0008A439A60002801D0FEF70DF8C0212268FF
:102CB00013688B43136020232B7023006A331B7827
:102CC000222B0FD1402123689A680A420AD09A68C1
:102CD000606E8A439A60002801D0FDF7F4FF20005F
:102CE000FFF72CFF002070BD2021036810B51B6882
:102CF000426A0B400CD1110052310B8080211368C5
:102D00009A688A439A60402219680A431A6010BD83
:102D1000100001F0A5FAFAE7704710B5406AFFF716
:102D2000FBFF10BD0368426A20201B6810B50340FA
:102D300013D111005A310B8013680A4C19682140D5
:102D4000196099680334FF34A143996099683F344E
:102D5000A143996013006A331870100001F09AFAC9
:102D600010BDC046FFFEFFFF704710B5406AFFF779
:102D7000FBFF10BD10B5446A210069310B78212B8F
:102D80000DD123689A68120609D52200002052321C
:102D900010801A68C03082431A6020230B70230011
:102DA0006A331B78222B0AD123689B685B0606D501
:102DB000230000225A331A802000FFF7BFFE1023A1
:102DC000E26E20001343E36601F04CFA10BD406A46
:102DD0000023020010B55A321380083A138001F024
:102DE00041FA10BD70B504000568C26983680069C6
:102DF0002968034360693F4E03433F481343014042
:102E00000B432B606B683D49206A0B40E1680B4324
:102E10006B60A369A9680343394801400B43AB6069
:102E200080231B02B54210D103203649096B0140B3
:102E30003548405C9A4213D0082858D8FDF776F9F7
:102E4000375742574B575757500030498D424CD156
:102E50009A422CD1FFF7C2FD636840005B080BE08B
:102E6000082821D8FDF758F9F62005201820202041
:102E70001B0063685808264BC0186168FDF760F9AD
:102E800083B200200F22190091430A001B0721681A
:102E90005B0F1343CB6070BDFFF78EFCDCE763680C
:102EA000580880235B02E7E701200023EAE7FFF7E9
:102EB00095FD61684B081818FDF742F980B2E8608B
:102EC0000020E8E76168134B4808C018FDF738F99F
:102ED00080B2F060F4E7FFF76FFC61684B08F4E73D
:102EE000802361681B024808EFE79A42DCD001208A
:102EF000D1E7C04600380140F369FFEFFFCFFFFF85
:102F0000FFF4FFFF001002403C5400080044004062
:102F10000024F40000127A00436A30B5DA0706D5BF
:102F20000168284C4A682240846A22434A609A0712
:102F300006D50168244C4A682240C46A22434A608C
:102F40005A0706D50168214C4A682240046B224387
:102F50004A601A0706D501681D4C4A682240446B36
:102F600022434A60DA0606D501681A4C8A68224074
:102F7000846B22438A609A0606D50168164C8A68DB
:102F80002240C46B22438A605A0610D50168134D53
:102F90004A68046C2A4022434A60802252039442C9
:102FA00005D14A680E4C2240446C22434A601B06FD
:102FB00006D502680B4953680B40816C0B43536084
:102FC00030BDC046FFFFFDFFFFFFFEFFFFFFFBFF21
:102FD000FF7FFFFFFFEFFFFFFFDFFFFFFFFFEFFFC1
:102FE000FFFF9FFFFFFFF7FFF8B504000E0015007D
:102FF0001F002268D36933409B1B59424B41AB42AF
:1030000001D0002018E0069B0133F3D0069B002B73
:1030100013D123680C491A6803200A401A609A6881
:10302000A331FF318A439A60220020236932137052
:103030005370002368342370F8BDFDF737F9069B01
:10304000C01B8342D5D2E4E75FFEFFFF73B50026C5
:103050000400C666FDF72AF9164A23680500934264
:1030600008D0220020230020693268341370537086
:10307000207076BD1B681B070FD423681B685B0795
:10308000EFD580210C4B00220093C9032B002000B8
:10309000FFF7AAFF00280BD1E3E78021064B32009F
:1030A0000093890303002000FFF79EFF0028E4D06F
:1030B0000320DEE700380140FFFFFF0170B5041E6A
:1030C00001D1012070BD050069352B78DBB2002BE2
:1030D00004D102006832137001F0E8FD24230121BD
:1030E00022682B70136820008B431360FFF77AFE71
:1030F0000128E6D0636A002B02D02000FFF70CFF06
:10310000236808495A6820000A402A215A609A68B0
:103110008A439A60012219680A431A60FFF796FFF2
:10312000D0E7C046FFB7FFFF030030B569331B7817
:1031300002000220212B0FD1140052342388116881
:103140009BB2002B09D10A687E3082430A6040227C
:10315000086802430A60002030BD80209568400165
:10316000D36C85420DD1106900280AD1188802332A
:10317000C005C00D0885D3642388013B9BB2238022
:10318000E9E7581CD0641B780B85F5E740210268FD
:1031900010B513688B4313600300202269331A7043
:1031A00001F05EF8002010BD020070B56A3211789F
:1031B000036822292DD1010080245C310D88998C6F
:1031C000640129408568436DA5421ED10469002C25
:1031D0001BD1198002334365010000245A310B884A
:1031E000013B9BB20B80A3420DD103680C4D1968C3
:1031F0002940196099682335FF35A9439960202338
:10320000137001F047F8200070BD5C1C4465197014
:10321000E2E70822996902240A439A61F3E7C0466B
:10322000DFFEFFFF0F210268F8B5D36904001940E3
:10323000106808D120252B4205D0284203D0200059
:10324000FFF7B2FFF8BD9668002961D00121350073
:103250000D4003D190277F00384259D00B4205D052
:10326000C60503D51162E66E3143E16602210B42C9
:1032700006D0002D04D01162E66E49183143E16694
:1032800004210B4206D0002D04D01162E66E0239F3
:103290003143E166190708D5810601D4002D04D019
:1032A00008211162E26E1143E166E26E002AC9D084
:1032B0002022134204D0104202D02000FFF774FFF6
:1032C000E36E20001B0704D423689D6840231D4043
:1032D0001AD0FFF733FC402123689A680A420FD0C6
:1032E0009A68606E8A439A60002809D01A4B43633B
:1032F000FDF7FEFC0028A5D0606E436B9847A1E760
:10330000200000F0AFFF9DE700F0ACFFE56699E715
:10331000802149030B420BD0750209D511622200AE
:103320002023693213702000537000F017F889E7EA
:103330008022134205D0104203D02000FFF7F4FE94
:1033400080E74022134200D17CE7104200D179E7A8
:103350002000FFF71BFF75E7CF2D0008704786237D
:103360009B00C358002B05D0002185229200995064
:10337000002070470220FCE710B586239B00C4584C
:103380000433C358002B0DD080229200A05CFF288C
:1033900008D09B68044AA25C21009847FF22802342
:1033A0009B00E254002010BD010200004323038073
:1033B00000487047380000204323038000487047CE
:1033C0007C0000204323038000487047CC0000208D
:1033D0000A23038000487047C000002070B5040035
:1033E0008626B600855901F026FF83239B00E8500E
:1033F000A359002B0BD087239B00E358DB68832263
:103400009200A918083AA8589847002070BD0220D9
:10341000FCE7000070B505000C0086239B00C65831
:103420000978B93BFF3B0B4029D0202B2AD1E288F9
:10343000002A1BD049B200290BDB627880239B0055
:10344000F254E288134BF254E288310000F01EFD82
:1034500018E0FD33FF33C3589B686078310098470C
:10346000E2883100280000F0FBFC0BE087239B0082
:10347000C3589B68607800222100984702E0637877
:103480000A2B01D0002070BD0122034900F0E8FCA6
:10349000F8E7C046010200007C01002070B504007E
:1034A000812101F04EFE0121200001F04AFE82211F
:1034B000200001F046FE86239B00E358002B0BD032
:1034C00087239B00E3585B6898478625AD006059C9
:1034D00001F0BCFE00236351002070BD70B50400F4
:1034E000037C002B34D18025AD002B0002228121EA
:1034F00001F014FE2B0002220121200001F00EFE3B
:10350000082303228221200001F008FE872080008A
:1035100001F098FE050086239B00E05000282DD086
:103520000433E3581B689847002385229200AB5070
:103530000432AB50237C002B16D081239B00EA5829
:10354000C53BFF3B0121200001F065FE002070BD5E
:1035500040230222812101F0E1FD402302220121CA
:10356000200001F0DBFDCBE781239B00EA58043B00
:103570000121200001F04FFE0020E8E70120E6E7EE
:10358000002904D087239B00C150002070470220EF
:10359000FCE786239B00C3588220800019508421B9
:1035A00089005A500020704786239B00C258143B64
:1035B000D1500020704710B586239B00C258002AC6
:1035C00014D0043BD358002B01D0012010BD0121A1
:1035D00085239B00D150043BD35A82218900525845
:1035E0008839FF3901F007FE0020EFE70220EDE700
:1035F00010B586239B00C358002B15D0027C002AEF
:1036000008D0812292009A584023012101F003FE44
:10361000002010BD812292009A5880239B00012136
:1036200001F0F9FD0020F4E70220F2E710B50028D0
:1036300016D085239B00C358002B03D0002485237C
:103640009B00C450002902D084239B00C15001215B
:10365000FE235B00C154027001F008FD002010BD84
:103660000220FCE7002904D085239B00C1500020E4
:1036700070470220FCE710B501F040FD002010BDAE
:1036800010B585239B00C358002B05D01B689847B5
:10369000002803D0022000E0022010BD0020FCE73B
:1036A00010B585239B00C3585B689847002010BD68
:1036B00070B5040082239B00C518280000F02FF984
:1036C0000122FA235B00E250124BE25A163BE25011
:1036D0001033E15CEA3BFF3B0B40012B0FD0002B8A
:1036E00007D0022B10D07F239943200001F039FD31
:1036F00003E02900200000F0B7FA002070BD290087
:10370000200000F0D5FAF8E72900200000F0EEFADA
:10371000F3E7C0460E02000010B5040013000029B4
:1037200028D1FA2252008258032A2ED1421DFF329C
:103730009168D26891420ED885239B00C3581B69BB
:10374000002B04D0FE225200825C032A10D02000FD
:1037500000F0B4FB19E0891A0530FF3081608A421D
:1037600000D90A0092B21900200000F09FFB0CE083
:103770009847ECE785239B00C3589B69002B04D036
:10378000FE225200825C032A01D0002010BD98471F
:10379000FBE770B50400130000294FD1FA22520054
:1037A0008258022A06D080239B00E35C012B40D084
:1037B000002070BDC269056AAA421CD8866929002A
:1037C0003000FCF743FD002906D1B54204D8FC23A4
:1037D0005B00E3589E421BD385239B00E358DB68C4
:1037E000002B04D0FE225200A25C032A1ED020002F
:1037F00000F070FBD7E7521BC26192B2190000F0D3
:103800003DFB002300220021200001F004FDCAE757
:103810000022200000F032FB0022FC235B00E2507B
:1038200000230021200001F0F6FCBCE720009847AF
:10383000DDE7002280239B00E254B9E785239B004B
:10384000C3585B69002BB3D0FE225200825C032A6E
:10385000AED19847ACE770B50400402300220021A8
:1038600001F05CFC402588235B00E550D03B002242
:103870008021200001F052FC25620122FE235B0022
:10388000E2541C33E358002B06D085239B00E358F9
:103890005B68217920009847002070BD01740020EA
:1038A0007047FE235B00C15CFE22FF328154FA3A6E
:1038B000FF3AC25400207047FE23FF33C25C013B35
:1038C000C2540020704710B5FE235B00C35C032B7D
:1038D00001D0002010BD85239B00C358DB69002B5D
:1038E000F7D09847F5E70300002002E00130C0B2AE
:1038F00001331A78002AF9D1704710B504004B88BB
:10390000012B00D010BD012281239B00C250103337
:10391000C3589B689847200000F0D0FAF2E70B7874
:1039200003704B7843708B78CA7812029B184380DF
:103930000B794A7912029B1883808B79CA7912021B
:103940009B18C380704710B50400802101F009FC6A
:103950000021200001F005FC10BD000030B583B04F
:1039600004000D004A88130A072B00D98EE09B0043
:103970004F49CB589F4684239B00C3581B68007C4B
:103980006A46911D98476B4606331B88002B03D06F
:10399000EA88002A00D07EE003B030BD037C002B13
:1039A00009D185239B00C3589B6A6A46901D98479E
:1039B00002234370E7E785239B00C358DB6A6A460E
:1039C000901D984702234370DDE7D2B2052A39D80B
:1039D0009200384B9B589F4684239B00C3585B68DA
:1039E000007C6A46911D9847CDE784239B00C3580D
:1039F0009B68007C6A46911D9847C4E784239B001E
:103A0000C358DB68007C6A46911D9847BBE7842356
:103A10009B00C3581B69007C6A46911D9847B2E71A
:103A200084239B00C3585B69007C6A46911D9847BC
:103A3000A9E784239B00C3589B69007C6A46911DBB
:103A40009847A0E72900FFF77EFFA5E7037C002B3E
:103A500007D185239B00C3585B6B6A46901D98472E
:103A600091E72900FFF76FFF96E7037C002B09D150
:103A700085239B00C3581B6B6A46901D98470723FC
:103A8000437080E72900FFF75EFF85E729002000EB
:103A9000FFF759FF80E7191C934200D9111C8AB225
:103AA0006B46D9800100200000F0DAF974E7C046C7
:103AB000405400086054000870B504008B88002B47
:103AC00022D1CB88002B1FD18B787F251D40FE2370
:103AD0005B00C35C032B0FD0FF235B00C5542900A0
:103AE00001F079FB200000F0E9F9002D07D0022257
:103AF000FE235B00E2540AE0FFF725FF07E0012206
:103B0000FE235B00E25402E02000FFF71CFF70BDC3
:103B100070B504000D008978284B197001290AD866
:103B2000FE235B00C35C022B09D0032B1ED02900AF
:103B3000FFF709FF02E02900FFF705FF70BD00292C
:103B400011D041600322FE235B00C254FFF798FDB1
:103B5000022803D0200000F0B1F9EFE7290020008F
:103B6000FFF7F1FEEAE700F0A9F9E7E7002911D035
:103B7000436899421ED0D9B2FFF792FD0F4B1978D6
:103B800061602000FFF77CFD02280ED0200000F0CD
:103B900095F9D3E70222FE235B00C2544160FFF790
:103BA0007FFD200000F08AF9C8E729002000FFF718
:103BB000CAFEC3E700F082F9C0E7C0467D010020DD
:103BC00010B5CB88012B09D1FE235B00C35C022B0F
:103BD00007D0032B0DD0FFF7B6FE01E0FFF7B3FED1
:103BE00010BD0023836001000831012200F038F984
:103BF000F6E7011D012200F033F9F1E710B5FE23CD
:103C00005B00C35C023BDBB2012B0ED80123C36017
:103C100081239B00C358002B01D00323C360010004
:103C20000C31022200F01CF910BDFFF78CFEFBE7FF
:103C300010B50400FE235B00C35C023BDBB2012B2A
:103C40000FD84B88012B00D010BD002281239B0090
:103C5000C2501033C3589B689847200000F02EF9DB
:103C6000F2E7FFF770FEEFE710B54B78092B19D894
:103C70009B000E4AD3589F46FFF770FE002010BDF0
:103C8000FFF71AFFFAE7FFF743FFF7E7FFF798FFA1
:103C9000F4E7FFF7B3FFF1E7FFF72FFEEEE7FFF7DB
:103CA000C7FFEBE7FFF74FFEE8E7C0467854000890
:103CB00070B504000D00FE235B00C35C032B12D122
:103CC0000B79012B03D9FFF73EFE002070BD852341
:103CD0009B00C3589B689847EB88002BF5D12000C8
:103CE00000F0ECF8F1E7FFF72EFEEEE770B5050007
:103CF0000C008A88D1B2207860230340202B12D098
:103D00006378012B35D0002B5BD0032B12D1FA3313
:103D1000FF33EB5C022B0FD0032B15D021002800C2
:103D2000FFF711FE06E0F533FF33EB589B682100E7
:103D300028009847002070BD0029FBD08029F9D0C9
:103D4000280001F00EFAF5E76388002B06D1002960
:103D500004D0802902D0280001F003FA85239B00BB
:103D6000EB589B68210028009847280000F0A6F82F
:103D7000E0E7FE235B00EB5C022B06D0032B0CD0AC
:103D800021002800FFF7DFFDD4E70029D2D08029E9
:103D9000D0D0280001F0E5F9CCE76388002BC9D129
:103DA0004B0603D1280000F089F8C3E7280001F092
:103DB000E8F985239B00EB589B6821002800984771
:103DC000F0E7FE235B00EB5C022B06D0032B0AD04E
:103DD00021002800FFF7B7FDACE74B06AAD028006A
:103DE00001F0BFF9A6E7130612D47F240C4010346B
:103DF00024012C190434280001F0D3F900280ED036
:103E00000123236002222100280000F029F891E715
:103E10007F240C40013424012C190434EBE70023E7
:103E20002360EFE770B504000D001600002816D0DF
:103E3000FFF759FD431C5B009BB233802B700323BB
:103E40006B70013B08E05A1CD2B20134E9540233D2
:103E5000DBB2AA180021117021780029F3D170BDBE
:103E600010B513000224FA22520084508361C3610A
:103E70000A00002101F0BFF9002010BD10B51300A9
:103E80000A00002101F0B7F9002010BD10B51300A1
:103E90000324FA2252008450EC3A835004328350B7
:103EA0000A00002101F0B7F9002010BD10B5130081
:103EB0000A00002101F0AFF9002010BD10B5042266
:103EC000FA235B00C25000230022002101F093F985
:103ED000002010BD10B50522FA235B00C25000235C
:103EE0000022002101F097F9002010BD00B587B035
:103EF0006846FDF7F1F80423009373336A46537361
:103F0000FCF780FFFCF79AFFFDF722F86846FDF703
:103F10004DF8FCF7A7FFFCF787FFFCF7D9FF07B0C8
:103F200000BD00B587B06846FDF7D6F86B465B7BF1
:103F30007F2B11D0042300937B336A465373FCF725
:103F400061FFFCF77BFFFDF703F86846FDF72EF8ED
:103F5000FCF788FFFCF7BCFF07B000BD292330B594
:103F600099B00B9380235B03169380235B0201249B
:103F70000225159300230BA813940C941294149506
:103F80001793FEF7FBFA002800D0FEE70723039003
:103F90000490210001A801930295FEF757FC002828
:103FA00000D0FEE780230A909B0205A80593FEF748
:103FB00025FD041E00D0FEE7FEF70AFDFA21890068
:103FC000FCF7BEF8FCF7DCFD0420FCF7F5FD012052
:103FD000220021004042FCF78DFD19B030BD0000E9
:103FE0008B4BF0B51B688BB01A6816231202134373
:103FF000884A894D1360FFF794FFFCF73FF9FFF7FC
:10400000ADFF80216A6989020A436A616B69822473
:104010000B4080210393039B6A69C9020A436A61CA
:104020006B69E4000B400022210004937B480026CA
:10403000049BFDF727F9012305A978480594069309
:1040400007960896FDF75EF8754C764B20002360C6
:104050000323636080235B04E360A0231B032361CD
:10406000C0239B0363610123A660A661E36126620E
:104070006662A662E662FCF7A7F90700B04200D0CC
:10408000FEE701226B69010013436B616B69664EA9
:104090001340059302000B20059BFCF72BFD0B2022
:1040A000FCF75AFD614D624B28006B600C236B617D
:1040B000043B6B6280231B022E60AF60EF602F61B8
:1040C000AF61EF612F626B63FEF7F8FF002800D04D
:1040D000FEE700F0C3FE5748574B036004234360DC
:1040E000564BC3608360FDF7D7F8071E00D0FEE78C
:1040F000534B2363534B6363534B187000F09CFC8A
:1041000002221E201100FCF7F5FC39002000FCF70C
:104110009FFA0122336801209343336010237268B1
:1041200013437360D02372681B05134373608023AD
:104130003268DB01134320223360336893433360DA
:10414000FCF7BAF8012233684049134333601D324B
:104150002800FEF749FD3A0039001C20FCF7CAFC94
:1041600080223B4B52051A6000F06AF90823019344
:10417000384800F0F5F900F085F9374E3378002B18
:1041800015D0324F1E220021380001F032F92B6881
:1041900001999A6928000A439A61102299690A4391
:1041A0009A6139001E22FEF71FFD00233370264B53
:1041B0001B78002B0CD0606B00F0E4FB0122224B3B
:1041C00000211B78200093431F4A1370FCF740FA2C
:1041D000FCF76CF8214E3368C01AF9280DD9FCF7AA
:1041E00065F8306000F0C8FB012801D0022808D132
:1041F00080210A48C900FDF74BF80E48FDF77CF80E
:10420000B6E780210122C9000448FDF73BF8F4E736
:10421000100100209C05002000100240000400480E
:10422000F00400200064004000440040DC05002051
:1042300080841E00E004002000300040FF0F0000DA
:10424000C005002078050020DC040020A005002027
:1042500000E100E0880100208401002080010020AE
:10426000C36E704710B51E220249C36EFEF7BCFC38
:1042700010BDC046A005002010B50021FCF7E8F9EC
:1042800010BD00000123024A11780B4313707047E0
:10429000DC040020012210B5024B03481A7000F024
:1042A0001FF910BD84010020A0050020FEE70000DA
:1042B000074B1B78DBB21F2B08D8054A1378DBB2FB
:1042C0000449C85413780133DBB213707047C046F9
:1042D000510200204C06002010B5092804D83030C7
:1042E000C0B2FFF7E5FF10BD3730C0B2F9E710B537
:1042F00004000009FFF7F0FF0F202040FFF7ECFF5C
:1043000010BD30B50023136009E01D00413DEDB242
:10431000052D18D85B18373B1360013021004C1E67
:10432000E4B2002918D00378002B16D013681901C5
:10433000116003781D00303DEDB2092DE5D85B1802
:10434000303B1360E9E71D00613DEDB2052D06D855
:104350005B18573B1360E0E70123180030BD0023D2
:10436000FBE70000F0B583B005000378722B42D064
:10437000522B40D0314B1B6B0022DA602B78592B2B
:104380003ED8681C01AA0821FFF7BBFF002853D0C4
:104390002A4B1A6B042191601B6B019A5A6008200A
:1043A00007000130281801AA0121FFF7AAFF002801
:1043B00042D0224B1A6B019911611B6BDA68002AFB
:1043C0002ED11E7C082E00D908260024B44227D204
:1043D000BB1C62009818281801AA0221FFF791FF60
:1043E000002829D0154B1B6B1B196A4612791A75C8
:1043F0000134E4B2EAE7114B1B6B0222DA60BDE73D
:10440000681C01AA0321FFF77CFF002814D00B4B86
:104410001A6B002191601B6B019A1A600320BFE7A1
:104420001E20FCF7A3FB00210448FCF77BF80400E6
:104430001E20FCF791FB200003B0F0BDF00400202B
:1044400010B5082000F0A4FB0022074B9A6000F092
:10445000E3FA002800D010BD1E30FCF77DFB0222DD
:10446000024B1A70F7E7C046F00400205202002009
:1044700010B51E20FCF77AFB0022014B1A7010BD0C
:104480005202002010B5124B1B78002B0ED0FE23D9
:104490005B00104AD35C032B09D00D4B1A780E49F0
:1044A0000E48FEF75BFB0022094B1A7010BD8623F5
:1044B0009B00084AD258043BD358002BF7D1044B39
:1044C0001978054800F02CFD0028F8D1EBE7C0462C
:1044D000510200206C0600204C060020DC05002064
:1044E00070B505000122094B1A70094C6332002196
:1044F000200000F07EFF2800FBF706FE02002900E6
:10450000200000F06DFF002070BDC0468501002036
:104510008801002070B50D280CD00A2815D00D4B4D
:104520001B780D4AD054622B11D80133094A1370FD
:10453000002070BD074C2278074900258D5407489C
:1045400000F04EFF25700120F3E70020F1E7002086
:10455000EFE7C04650020020EC0100208801002057
:1045600030B595B004000078002817D04338C3B2A6
:10457000332B00D9F4E19800AE4B1B589F46AE4B4D
:104580001B780D2B0CD00D22AB4B1A70AA4B1D784B
:10459000002323702800FFF78BFE012015B030BDEB
:1045A0000A22A54B1A70F1E7A44B1B78002B00D010
:1045B000D8E16378303BDAB2092A00D9D4E193001C
:1045C0009F4AD3589F46002000F0E2FA9A4B1D788C
:1045D000DEE7012000F0DCFA974B1D78D8E70220D7
:1045E00000F0D6FA944B1D78D2E7032000F0D0FA01
:1045F000914B1D78CCE7042000F0CAFA8E4B1D7851
:10460000C6E7052000F0C4FA8B4B1D78C0E70620F2
:1046100000F0BEFA884B1D78BAE7072000F0B8FA20
:10462000854B1D78B4E7082000F0B2FA824B1D7864
:10463000AEE7242000F0ACFA7F4B1D78A8E77E4B54
:104640001D78A5E77D4B1B78002B01D007259FE740
:10465000601C07AA0221FFF754FE002801D107259C
:1046600096E7E01C08AA0221FFF74BFE002801D1C3
:1046700007258DE7601D09AA0221FFF742FE0028E9
:1046800001D1072584E7E01D0AAA0421FFF739FEBE
:10469000002801D107257BE76A4B079ADA60089A60
:1046A0001A61099A5A610A9A5A6000F0B5F9624B88
:1046B0001D786DE75620FFF7FBFD0120FFF717FE81
:1046C0000120FFF714FE5C4B1D7861E77620FFF7B1
:1046D000EFFD0420FFF70BFE0120FFF708FE682026
:1046E000FFF7E6FD544B1D7852E74E20FFF7E0FD43
:1046F000554D2868C0B2FFF7FAFD28680012C0B215
:10470000FFF7F5FD28680014C0B2FFF7F0FD286838
:10471000000EFFF7ECFD484B1D7839E70022494BAE
:104720009A6000F079F9002801D0072530E71E30A3
:10473000FCF712FA0222414B1A703F4B1D7827E713
:104740008022D2053F4B9A601E20FCF705FA00F04C
:1047500063F90222394B1A70374B1D7818E7374B33
:104760001B78002B01D0072512E780221206354B5B
:104770009A601E20FCF7F0F900F04EF901222F4B51
:104780001A702D4B1D7803E7304B1B78002B01D09E
:104790000725FDE61E20FCF7E9F90022274B1A70D9
:1047A000254B1D78F4E6254B1B78022B01D00725FD
:1047B000EEE62000FFF7D6FD002800D0D6E02378F3
:1047C000592B05D85A30FFF773FD1B4B1D78DFE6D8
:1047D0007A20FFF76DFDF8E71A48FCF789F9C5B2B2
:1047E0004620FFF765FD2800FFF781FD124B1D787D
:1047F000CEE6601C0AAA0121FFF783FD002802D043
:104800000D4B1D78C4E60725C2E66378642B08D0FB
:10481000601C03AA0221FFF774FD002818D10725A8
:10482000B6E600F009F9044B1D784D20FFF740FD76
:10483000AEE6C046A0540008140100205202002039
:1048400070550008F00400209C0500208501002020
:10485000E01C04AA0221FFF754FD0028DFD0601DF0
:1048600005AA0121FFF74DFD0028D8D0A01D08AAF8
:104870000821FFF746FD0028D1D006AA012120001B
:104880000E30FFF73EFD0028C9D009AA08212000FC
:104890000F30FFF736FD0028C1D007AA0121200004
:1048A0001730FFF72EFD0028B9D005AB1B785B074A
:1048B00031D50899069800F0D9F801900999079820
:1048C00000F0D4F80290039B0F93049B139305AB65
:1048D0001B78DA07D20F12929A07D20F10925A075A
:1048E000D20F11921B07DB0F0E9301AB1A880A92AD
:1048F0005B880B9302AB1A880C925B880D934D205A
:10490000FFF7D6FC0AA91A48FBF7E8FC00280DD1EE
:10491000184B1D783CE60899069800F0E1F80190E4
:104920000999079800F0DCF80290CCE707252FE6FC
:1049300063786F2B01D007252AE6A3786F2B01D06F
:10494000072525E6E378742B01D0072520E6002310
:1049500023706370A370E370FFF7C8FA072517E6AA
:10496000072515E6072513E6072511E607250FE6B7
:10497000F004002014010020014B18787047C04655
:104980005202002070B505008368042B18D0C3685C
:10499000022B2AD07420FFF78BFC6B780F20184075
:1049A000FFF79AFC2878FFF7A2FC287CFFF794FC1D
:1049B0002B69002B26D0EB68022B23D000241EE0AD
:1049C000C368022B04D05420FFF772FC042409E0D2
:1049D0005220FFF76DFCF9E72A1D013C105DFFF73F
:1049E00086FCE4B2002CF7D1DFE77220FFF760FC11
:1049F000D3E72B19187DFFF77AFC0134E4B22B6959
:104A00009C42F6D1034B1878FFF752FCFFF73AFDB2
:104A1000002070BD1401002010B502E00448FCF72E
:104A20006BFC0448FBF7D0FC0328F7D0002010BD36
:104A3000E0040020F004002000B58BB000230593B3
:104A40000693012207920093019302930393049328
:104A50000892099369460448FBF740FC002801D1FD
:104A60000BB000BD0120FBE7F004002010B582B0C0
:104A700000236A4613805380C307DB0F01221340D3
:104A80008407E40F224092005B0013436A46937050
:104A9000830711D44A016B4618781F230340134340
:104AA0006A461370C9085170009B1A0C120418044E
:104AB000000C104302B010BDCA006B469878072363
:104AC000034013436A4693704B09D370490B1F236D
:104AD0000B4011781F22914319436B461970E3E78D
:104AE00070B582B000236A4613805380C307DB0F82
:104AF000012213408407E40F22401201DB0013431C
:104B00006A469370C5B2AB0711D54C0192781F234A
:104B1000134022001A43CB086C46E3700C0A0723AB
:104B20001C40D3B20722934323436A469370440741
:104B3000E40F01263440E4006B469B78082293433F
:104B40000207D20F3240120123431800102398436A
:104B500010436B4698702B0712D50A0C07200240B1
:104B600052016B461C781F232340CC0C6D466C70A1
:104B7000090E084013431900072399430143297084
:104B8000009B1A0C12041804000C104302B070BDF4
:104B900010B51B4B80225204DA60A02212031A6166
:104BA000C02292035A61242806D88000154B1B5856
:104BB0009F460322124B5A60FFF72EFF10BD0622BC
:104BC0000F4B5A60F8E70C220D4B5A60F4E718229D
:104BD0000B4B5A60F0E71E22094B5A60ECE73C226F
:104BE000074B5A60E8E79622054B5A60E4E79622A5
:104BF0005200034B5A60DFE72422014B5A60DBE787
:104C0000F00400209855000800B583B0124B996954
:104C100001221143996199690A400092009ADA6968
:104C2000802149050A43DA61DB690B400193019B4E
:104C30000022002105204042FBF75CFF00220021FA
:104C400002204042FBF756FF002200210120404293
:104C5000FBF750FF03B000BD0010024000B587B065
:104C600002680F4B9A4201D007B000BD0D4AD169CE
:104C7000802080040143D161D36903400093009BED
:104C8000C0239B0001930223029300230393033369
:104C900004930133059301A90348FCF733FAE3E7D2
:104CA00000640040001002400004004830B587B0A6
:104CB0000400284B02689A4201D007B030BD264A52
:104CC000D169802080020143D161D3690340009300
:104CD000009B0C2301930A3B0293002503950133AB
:104CE0000493023B059301A99020C005FCF70AFA42
:104CF0001A481B4B03601023436085607033C36008
:104D0000056145618561C561FBF76CFF002816D11F
:104D1000124B23665C621348134B0360002343600D
:104D200083608022C260036143618361C361FBF7DA
:104D300059FF002808D10B4B63665C62BDE7AE21CA
:104D40000A48FFF7B3FAE3E7BE210848FFF7AEFAD7
:104D5000F1E7C04600440040001002403405002046
:104D60004400024098040020580002402C560008DD
:104D70007047FEE77047704710B5FBF78FFAFBF7F7
:104D80002CFF10BD10B50348FBF7D5FF0248FBF719
:104D9000D2FF10BD340500209804002010B5024851
:104DA000FDF73EFB10BDC0469009002010B502483B
:104DB000FBF7C2FC10BDC046F004002010B50C4843
:104DC000FCF79AFA0B4BDB699B0303D40A48FEF706
:104DD00029FA10BD074A116A80239B020B43136214
:104DE000054C2000FDF74EFF2000FFF753FAEDE7DA
:104DF000E004002000440040DC050020114B1A684C
:104E000001210A431A605A680F4802405A601A6822
:104E10000E4802401A601A680D4802401A605A682B
:104E20000C4802405A60DA6A0F208243DA621A6B39
:104E3000094802401A635A6B8A435A6300229A60F7
:104E40007047C046001002400CB8FF08FFFFF6FE96
:104E5000FFFFFBFFFFFFC0FF2CFEFFFF10B5094C5B
:104E6000002209492000FEF7E1FB08492000FEF777
:104E7000F9FB07492000FEF783FB2000FEF7FBFB50
:104E800010BDC0466C0600202C0100200000002050
:104E90001C0100200020704770B505000E000024A2
:104EA00003E0285DFFF736FB013433689C420CD0E9
:104EB000FFF762FD0028F4D1285DFFF72BFB0028E7
:104EC000F2D00748FFF74CFBEEE7064C2900200024
:104ED000FEF76AFB2000FEF78BFB002070BDC0468A
:104EE000880100206C06002010B5222801D1FFF7B0
:104EF000BFFA002010BD000010B5064C0022064984
:104F00002000FEF746FB05492000FEF74DFB002080
:104F100010BDC0466C06002010090020900800203B
:104F200070B50C0086239B000B4AD258043BD35823
:104F3000002B01D0012070BD084E0A000100300096
:104F400000F04EFA044D220031002800FEF721FB4C
:104F50002800FEF730FBEEE76C0600201009002069
:104F600010B5FEF7FBFF10BD00B583B002680C4B17
:104F70009A4201D003B000BD0A4AD16980200004E2
:104F80000143D161D36903400193019B00220021B9
:104F90001F20FBF7AFFD1F20FBF7DEFDEAE7C04651
:104FA000005C00400010024010B5010087239B0008
:104FB000C058ED31FF31FEF77BFB10BD10B503008B
:104FC000872292008058CA00521A94001B19193384
:104FD000FF331A68FEF7A0FB10BD10B5030087224F
:104FE00092008058CA00521A94001B199A6BFEF75F
:104FF000D0FB10BD10B587239B00C058FEF763FCA3
:1050000010BD70B505008724A40001210059FEF7EA
:1050100045FC2859FEF71FFC70BD000010B50400C8
:1050200087239B00C058FEF73CFCA369002B04D0EB
:10503000024A136906210B43136110BD00ED00E025
:1050400010B504008369002B05D187239B00E0582D
:10505000FEF732FC10BD044A136906218B4313612D
:10506000FFF77EFFF1E7C04600ED00E070B50400F9
:105070001F4887239B00C4500433E0501D4B03603E
:1050800008234360022282600023C36002618361BF
:10509000C3610362FCF738F9002823D18825AD00ED
:1050A0001823002200216059FDF74AFA58230022F4
:1050B00080216059FDF744FAC02300228121605904
:1050C000FDF73EFA88235B00002201216059FDF7BD
:1050D00037FA605980235B0000228221FDF730FA05
:1050E000002070BD9A2149000348FFF7DFF8D5E79B
:1050F00090090020005C00406056000810B588232D
:105100009B00C058FCF760F9002803D0022803D0A8
:10511000022010BD0020FCE70120FAE710B51400C2
:105120001A0088239B00C0582300FCF775F900285B
:1051300003D0022803D0022010BD0020FCE701208C
:10514000FAE710B588239B00C058FCF70FFB002836
:1051500003D0022803D0022010BD0020FCE701206C
:10516000FAE710B588239B00C058FCF7F1FC002833
:1051700003D0022803D0022010BD0020FCE701204C
:10518000FAE710B588239B00C058FCF743FD0028C0
:1051900003D0022803D0022010BD0020FCE701202C
:1051A000FAE70A0088239B00C35849B2002909DBAB
:1051B0007F211140CA00511A8A009B180B33FF331C
:1051C000187870477F211140C800411A8A009B1847
:1051D0002A331878F5E710B588239B00C058FCF7F0
:1051E000FFF8002803D0022803D0022010BD0020C1
:1051F000FCE70120FAE710B58824A4000059FCF769
:105200008DFD002803D0022803D0022010BD00200D
:10521000FCE70120FAE710B58824A4000059FCF748
:105220008DFB002803D0022803D0022010BD0020EF
:10523000FCE70120FAE710B588239B00C058FCF773
:105240007DFC10BD004870475402002070470000EC
:1052500012230B80004870474801002004230B8074
:10526000004870475C01002010B50A00002805D0F6
:1052700005490648FEF7D6FD034810BD024903481C
:10528000FEF7D0FDF8E7C046B00B00209C560008A2
:1052900010B50A00034C21000348FEF7C3FD2000AF
:1052A00010BDC046B00B00209056000810B50A0093
:1052B000002805D005490648FEF7B4FD034810BD97
:1052C00002490348FEF7AEFDF8E7C046B00B0020E8
:1052D000B856000810B50A00002805D00549064850
:1052E000FEF7A0FD034810BD02490348FEF79AFDF2
:1052F000F8E7C046B00B00207456000810B50A004D
:10530000002805D005490648FEF78CFD034810BD6E
:1053100002490348FEF786FDF8E7C046B00B0020BF
:10532000805600081348854604200168090E1F2294
:10533000914205D11048012101601048002101600F
:105340000F481049104A002302E0D458C4500433D7
:10535000C4188C42F9D30D4A0D4C002301E01360B0
:105360000432A242FBD3FFF749FD00F015F8FEF727
:1053700037FEFEE700180020181002400000014030
:105380000000002060010020CC56000860010020D1
:10539000B00D0020FEE7000070B500260C4D0D4C4E
:1053A000641BA410A64209D1002600F02BF80A4D78
:1053B0000A4C641BA410A64205D170BDB300EB5883
:1053C00098470136EEE7B300EB5898470136F2E70D
:1053D000C4560008C4560008C4560008C856000841
:1053E000002310B59A4200D110BDCC5CC4540133E7
:1053F000F8E703008218934200D170471970013317
:10540000F9E70000F8B5C046F8BC08BC9E467047F6
:0C541000F8B5C046F8BC08BC9E467047CA
:10541C0002030405060708090A0B0C0D0E0F1010E9
:10542C000102030405060708090A0B0C0D0E0F10E8
:10543C00000408028C3A0008763900089C390008F0
:10544C00CA3900088C3A00088C3A00084C3A00081B
:10545C006A3A0008D8390008EA390008FC39000813
:10546C000E3A0008203A0008323A0008923C000834
:10547C009E3C0008A43C0008983C0008A43C000892
:10548C00803C0008783C0008A43C00088C3C0008D8
:10549C00863C0008884700086049000860490008FD
:1054AC00D84700083E4600086049000860490008DB
:1054BC0060490008604900085E4700080A48000877
:1054CC00EA4600081C4700086049000860490008CB
:1054DC00A6470008A8450008A64700086049000830
:1054EC00B44600083E4600086049000860490008C0
:1054FC00F24700086049000860490008604900084C
:10550C006049000860490008604900087E450008B1
:10551C0030490008604900086049000860490008EB
:10552C0060490008604900086049000860490008AB
:10553C006049000860490008404700080A48000814
:10554C00604900081C4700086049000860490008D1
:10555C00A647000844460008A64700086049000812
:10556C00CC460008C6450008D2450008DE450008B8
:10557C00EA450008F6450008024600080E460008F9
:10558C001A4600082646000832460008EE4B000872
:10559C00E64B0008DE4B0008D64B0008CE4B00084B
:1055AC00C64B0008BE4B0008B84B0008B24B0008B5
:1055BC00B84B0008B84B0008B84B0008B84B0008B3
:1055CC00B84B0008B84B0008B84B0008B84B0008A3
:1055DC00B84B0008B84B0008B84B0008B84B000893
:1055EC00B84B0008B84B0008B84B0008B84B000883
:1055FC00B84B0008B84B0008B84B0008B84B000873
:10560C00B84B0008B84B0008B84B0008B84B000862
:10561C00B84B0008B84B0008B84B0008F84B000812
:10562C002E2E5C5372635C73746D333266307878F3
:10563C005F68616C5F6D73702E630000000000008A
:10564C000000000001020304060708090000000026
:10565C00010203042E2E5C5372635C757362645FEB
:10566C00636F6E662E63000043444320436F6E6687
:10567C006967000043444320496E74657266616338
:10568C00650000004875736172696F6E0000000060
:10569C004875736172696F6E205553422D43414EAC
:1056AC0020496E74657266616365000064656164AF
:0856BC00626565660000000054
:0456C400E9000008F1
:0456C800C100000815
:1056CC00DD3400089D34000815340008000000008B
:1056DC00793300085F330008DD3300080000000058
:1056EC000000000000000000B9330008AD330008D2
:1056FC00C5330008D133000809024300020100C081
:10570C003209040000010202010005240010010509
:10571C00240100010424020205240600010705826D
:10572C000308001009040100020A0000000705012B
:10573C0002400000070581024000000009024300FE
:10574C00020100C03209040000010202010005241C
:10575C0000100105240100010424020205240600A6
:10576C00010705820308001009040100020A000069
:10577C00000705010200020007058102000200007B
:10578C000A06000200000040010000000907430067
:10579C00020104C0320904000001020201000524C8
:1057AC000010010524010001042402020524060056
:1057BC0001070582030800FF09040100020A00002A
:1057CC0000070501024000000705810240000000AF
:1057DC00B0F7FF1F0D00000000127A00F94E000810
:1057EC00954E0008E94E0008994E000851520008E9
:1057FC005D5200089152000869520008AD52000831
:10580C00D5520008FD5200081201000202020040AD
:10581C008304405700020102030100000403090441
:040000050800532577
:00000001FF
